{
  "contractName": "WebScraptingData",
  "abi": [
    {
      "constant": true,
      "inputs": [],
      "name": "url",
      "outputs": [
        {
          "name": "",
          "type": "string"
        }
      ],
      "payable": false,
      "stateMutability": "view",
      "type": "function"
    },
    {
      "constant": false,
      "inputs": [],
      "name": "renounceOwnership",
      "outputs": [],
      "payable": false,
      "stateMutability": "nonpayable",
      "type": "function"
    },
    {
      "constant": true,
      "inputs": [],
      "name": "data",
      "outputs": [
        {
          "name": "",
          "type": "bytes32"
        }
      ],
      "payable": false,
      "stateMutability": "view",
      "type": "function"
    },
    {
      "constant": true,
      "inputs": [],
      "name": "owner",
      "outputs": [
        {
          "name": "",
          "type": "address"
        }
      ],
      "payable": false,
      "stateMutability": "view",
      "type": "function"
    },
    {
      "constant": true,
      "inputs": [],
      "name": "isOwner",
      "outputs": [
        {
          "name": "",
          "type": "bool"
        }
      ],
      "payable": false,
      "stateMutability": "view",
      "type": "function"
    },
    {
      "constant": false,
      "inputs": [
        {
          "name": "newOwner",
          "type": "address"
        }
      ],
      "name": "transferOwnership",
      "outputs": [],
      "payable": false,
      "stateMutability": "nonpayable",
      "type": "function"
    },
    {
      "inputs": [
        {
          "name": "_link",
          "type": "address"
        }
      ],
      "payable": false,
      "stateMutability": "nonpayable",
      "type": "constructor"
    },
    {
      "anonymous": false,
      "inputs": [
        {
          "indexed": true,
          "name": "previousOwner",
          "type": "address"
        },
        {
          "indexed": true,
          "name": "newOwner",
          "type": "address"
        }
      ],
      "name": "OwnershipTransferred",
      "type": "event"
    },
    {
      "anonymous": false,
      "inputs": [
        {
          "indexed": true,
          "name": "id",
          "type": "bytes32"
        }
      ],
      "name": "ChainlinkRequested",
      "type": "event"
    },
    {
      "anonymous": false,
      "inputs": [
        {
          "indexed": true,
          "name": "id",
          "type": "bytes32"
        }
      ],
      "name": "ChainlinkFulfilled",
      "type": "event"
    },
    {
      "anonymous": false,
      "inputs": [
        {
          "indexed": true,
          "name": "id",
          "type": "bytes32"
        }
      ],
      "name": "ChainlinkCancelled",
      "type": "event"
    },
    {
      "constant": false,
      "inputs": [
        {
          "name": "_url",
          "type": "string"
        }
      ],
      "name": "setUrl",
      "outputs": [],
      "payable": false,
      "stateMutability": "nonpayable",
      "type": "function"
    },
    {
      "constant": true,
      "inputs": [],
      "name": "getChainLinkToken",
      "outputs": [
        {
          "name": "",
          "type": "address"
        }
      ],
      "payable": false,
      "stateMutability": "view",
      "type": "function"
    },
    {
      "constant": false,
      "inputs": [
        {
          "name": "_oracle",
          "type": "address"
        },
        {
          "name": "_jobId",
          "type": "bytes32"
        },
        {
          "name": "_payment",
          "type": "uint256"
        },
        {
          "name": "_path",
          "type": "string"
        },
        {
          "name": "_index",
          "type": "string"
        },
        {
          "name": "_filter",
          "type": "string"
        }
      ],
      "name": "createRequestTo",
      "outputs": [
        {
          "name": "requestId",
          "type": "bytes32"
        }
      ],
      "payable": false,
      "stateMutability": "nonpayable",
      "type": "function"
    },
    {
      "constant": false,
      "inputs": [
        {
          "name": "_requestId",
          "type": "bytes32"
        },
        {
          "name": "_data",
          "type": "bytes32"
        }
      ],
      "name": "fulfill",
      "outputs": [],
      "payable": false,
      "stateMutability": "nonpayable",
      "type": "function"
    },
    {
      "constant": false,
      "inputs": [
        {
          "name": "_requestId",
          "type": "bytes32"
        },
        {
          "name": "_payment",
          "type": "uint256"
        },
        {
          "name": "_callbackFunctionId",
          "type": "bytes4"
        },
        {
          "name": "_expiration",
          "type": "uint256"
        }
      ],
      "name": "cancelRequest",
      "outputs": [],
      "payable": false,
      "stateMutability": "nonpayable",
      "type": "function"
    }
  ],
  "bytecode": "0x608060405260016004553480156200001657600080fd5b5060405160208062002103833981018060405260208110156200003857600080fd5b81019080805190602001909291905050506000620000646200017a640100000000026401000000009004565b905080600660006101000a81548173ffffffffffffffffffffffffffffffffffffffff021916908373ffffffffffffffffffffffffffffffffffffffff1602179055508073ffffffffffffffffffffffffffffffffffffffff16600073ffffffffffffffffffffffffffffffffffffffff167f8be0079c531659141344cd1fd0a4f28419497f9722a3daafe3b4186f6b6457e060405160405180910390a350600073ffffffffffffffffffffffffffffffffffffffff168173ffffffffffffffffffffffffffffffffffffffff16141562000158576200015262000182640100000000026401000000009004565b62000173565b620001728162000251640100000000026401000000009004565b5b5062000295565b600033905090565b6200024f73c89bd4e1632d3a43cb03aaad5262cbe4038bc57173ffffffffffffffffffffffffffffffffffffffff166338cc48316040518163ffffffff167c010000000000000000000000000000000000000000000000000000000002815260040160206040518083038186803b158015620001fd57600080fd5b505afa15801562000212573d6000803e3d6000fd5b505050506040513d60208110156200022957600080fd5b810190808051906020019092919050505062000251640100000000026401000000009004565b565b80600260006101000a81548173ffffffffffffffffffffffffffffffffffffffff021916908373ffffffffffffffffffffffffffffffffffffffff16021790555050565b611e5e80620002a56000396000f3fe6080604052600436106100af576000357c0100000000000000000000000000000000000000000000000000000000900463ffffffff168063042f2b65146100b457806317e13d08146100f9578063252498a2146101505780635600f04f14610218578063715018a6146102a857806373d4a13a146102bf5780638da5cb5b146102ea5780638f32d59b14610341578063e846731514610370578063ec65d0f8146105ae578063f2fde38b14610626575b600080fd5b3480156100c057600080fd5b506100f7600480360360408110156100d757600080fd5b810190808035906020019092919080359060200190929190505050610677565b005b34801561010557600080fd5b5061010e6107e3565b604051808273ffffffffffffffffffffffffffffffffffffffff1673ffffffffffffffffffffffffffffffffffffffff16815260200191505060405180910390f35b34801561015c57600080fd5b506102166004803603602081101561017357600080fd5b810190808035906020019064010000000081111561019057600080fd5b8201836020820111156101a257600080fd5b803590602001918460018302840111640100000000831117156101c457600080fd5b91908080601f016020809104026020016040519081016040528093929190818152602001838380828437600081840152601f19601f8201169050808301925050505050505091929192905050506107f2565b005b34801561022457600080fd5b5061022d610888565b6040518080602001828103825283818151815260200191508051906020019080838360005b8381101561026d578082015181840152602081019050610252565b50505050905090810190601f16801561029a5780820380516001836020036101000a031916815260200191505b509250505060405180910390f35b3480156102b457600080fd5b506102bd610926565b005b3480156102cb57600080fd5b506102d4610a63565b6040518082815260200191505060405180910390f35b3480156102f657600080fd5b506102ff610a69565b604051808273ffffffffffffffffffffffffffffffffffffffff1673ffffffffffffffffffffffffffffffffffffffff16815260200191505060405180910390f35b34801561034d57600080fd5b50610356610a93565b604051808215151515815260200191505060405180910390f35b34801561037c57600080fd5b50610598600480360360c081101561039357600080fd5b81019080803573ffffffffffffffffffffffffffffffffffffffff1690602001909291908035906020019092919080359060200190929190803590602001906401000000008111156103e457600080fd5b8201836020820111156103f657600080fd5b8035906020019184600183028401116401000000008311171561041857600080fd5b91908080601f016020809104026020016040519081016040528093929190818152602001838380828437600081840152601f19601f8201169050808301925050505050505091929192908035906020019064010000000081111561047b57600080fd5b82018360208201111561048d57600080fd5b803590602001918460018302840111640100000000831117156104af57600080fd5b91908080601f016020809104026020016040519081016040528093929190818152602001838380828437600081840152601f19601f8201169050808301925050505050505091929192908035906020019064010000000081111561051257600080fd5b82018360208201111561052457600080fd5b8035906020019184600183028401116401000000008311171561054657600080fd5b91908080601f016020809104026020016040519081016040528093929190818152602001838380828437600081840152601f19601f820116905080830192505050505050509192919290505050610af2565b6040518082815260200191505060405180910390f35b3480156105ba57600080fd5b50610624600480360360808110156105d157600080fd5b81019080803590602001909291908035906020019092919080357bffffffffffffffffffffffffffffffffffffffffffffffffffffffff1916906020019092919080359060200190929190505050610e10565b005b34801561063257600080fd5b506106756004803603602081101561064957600080fd5b81019080803573ffffffffffffffffffffffffffffffffffffffff169060200190929190505050610e9e565b005b816005600082815260200190815260200160002060009054906101000a900473ffffffffffffffffffffffffffffffffffffffff1673ffffffffffffffffffffffffffffffffffffffff163373ffffffffffffffffffffffffffffffffffffffff16141515610774576040517f08c379a00000000000000000000000000000000000000000000000000000000081526004018080602001828103825260288152602001807f536f75726365206d75737420626520746865206f7261636c65206f662074686581526020017f207265717565737400000000000000000000000000000000000000000000000081525060400191505060405180910390fd5b6005600082815260200190815260200160002060006101000a81549073ffffffffffffffffffffffffffffffffffffffff0219169055807f7cc135e0cebb02c3480ae5d74d377283180a2601f8f644edf7987b009316c63a60405160405180910390a281600781905550505050565b60006107ed610f26565b905090565b6107fa610a93565b151561086e576040517f08c379a00000000000000000000000000000000000000000000000000000000081526004018080602001828103825260208152602001807f4f776e61626c653a2063616c6c6572206973206e6f7420746865206f776e657281525060200191505060405180910390fd5b8060089080519060200190610884929190611ceb565b5050565b60088054600181600116156101000203166002900480601f01602080910402602001604051908101604052809291908181526020018280546001816001161561010002031660029004801561091e5780601f106108f35761010080835404028352916020019161091e565b820191906000526020600020905b81548152906001019060200180831161090157829003601f168201915b505050505081565b61092e610a93565b15156109a2576040517f08c379a00000000000000000000000000000000000000000000000000000000081526004018080602001828103825260208152602001807f4f776e61626c653a2063616c6c6572206973206e6f7420746865206f776e657281525060200191505060405180910390fd5b600073ffffffffffffffffffffffffffffffffffffffff16600660009054906101000a900473ffffffffffffffffffffffffffffffffffffffff1673ffffffffffffffffffffffffffffffffffffffff167f8be0079c531659141344cd1fd0a4f28419497f9722a3daafe3b4186f6b6457e060405160405180910390a36000600660006101000a81548173ffffffffffffffffffffffffffffffffffffffff021916908373ffffffffffffffffffffffffffffffffffffffff160217905550565b60075481565b6000600660009054906101000a900473ffffffffffffffffffffffffffffffffffffffff16905090565b6000600660009054906101000a900473ffffffffffffffffffffffffffffffffffffffff1673ffffffffffffffffffffffffffffffffffffffff16610ad6610f50565b73ffffffffffffffffffffffffffffffffffffffff1614905090565b6000610afc610a93565b1515610b70576040517f08c379a00000000000000000000000000000000000000000000000000000000081526004018080602001828103825260208152602001807f4f776e61626c653a2063616c6c6572206973206e6f7420746865206f776e657281525060200191505060405180910390fd5b60006008805460018160011615610100020316600290049050111515610bfe576040517f08c379a000000000000000000000000000000000000000000000000000000000815260040180806020018281038252600f8152602001807f75726c206973207265717569726564000000000000000000000000000000000081525060200191505060405180910390fd5b610c06611d6b565b610c34873063042f2b657c010000000000000000000000000000000000000000000000000000000002610f58565b9050610d1a6040805190810160405280600381526020017f75726c000000000000000000000000000000000000000000000000000000000081525060088054600181600116156101000203166002900480601f016020809104026020016040519081016040528092919081815260200182805460018160011615610100020316600290048015610d055780601f10610cda57610100808354040283529160200191610d05565b820191906000526020600020905b815481529060010190602001808311610ce857829003601f168201915b505050505083610f899092919063ffffffff16565b610d646040805190810160405280600481526020017f70617468000000000000000000000000000000000000000000000000000000008152508683610f899092919063ffffffff16565b610dae6040805190810160405280600581526020017f696e6465780000000000000000000000000000000000000000000000000000008152508583610f899092919063ffffffff16565b610df86040805190810160405280600681526020017f66696c74657200000000000000000000000000000000000000000000000000008152508483610f899092919063ffffffff16565b610e03888288610fbc565b9150509695505050505050565b610e18610a93565b1515610e8c576040517f08c379a00000000000000000000000000000000000000000000000000000000081526004018080602001828103825260208152602001807f4f776e61626c653a2063616c6c6572206973206e6f7420746865206f776e657281525060200191505060405180910390fd5b610e98848484846112e1565b50505050565b610ea6610a93565b1515610f1a576040517f08c379a00000000000000000000000000000000000000000000000000000000081526004018080602001828103825260208152602001807f4f776e61626c653a2063616c6c6572206973206e6f7420746865206f776e657281525060200191505060405180910390fd5b610f2381611460565b50565b6000600260009054906101000a900473ffffffffffffffffffffffffffffffffffffffff16905090565b600033905090565b610f60611d6b565b610f68611d6b565b610f7f858585846115eb909392919063ffffffff16565b9150509392505050565b610fa082846080015161169b90919063ffffffff16565b610fb781846080015161169b90919063ffffffff16565b505050565b600030600454604051602001808373ffffffffffffffffffffffffffffffffffffffff1673ffffffffffffffffffffffffffffffffffffffff166c0100000000000000000000000002815260140182815260200192505050604051602081830303815290604052805190602001209050600454836060018181525050836005600083815260200190815260200160002060006101000a81548173ffffffffffffffffffffffffffffffffffffffff021916908373ffffffffffffffffffffffffffffffffffffffff160217905550807fb5e6e01e79f91267dc17b4e6314d5d4d03593d2ceee0fbb452b750bd70ea5af960405160405180910390a2600260009054906101000a900473ffffffffffffffffffffffffffffffffffffffff1673ffffffffffffffffffffffffffffffffffffffff16634000aea08584611100876116c0565b6040518463ffffffff167c0100000000000000000000000000000000000000000000000000000000028152600401808473ffffffffffffffffffffffffffffffffffffffff1673ffffffffffffffffffffffffffffffffffffffff16815260200183815260200180602001828103825283818151815260200191508051906020019080838360005b838110156111a3578082015181840152602081019050611188565b50505050905090810190601f1680156111d05780820380516001836020036101000a031916815260200191505b50945050505050602060405180830381600087803b1580156111f157600080fd5b505af1158015611205573d6000803e3d6000fd5b505050506040513d602081101561121b57600080fd5b810190808051906020019092919050505015156112c6576040517f08c379a00000000000000000000000000000000000000000000000000000000081526004018080602001828103825260238152602001807f756e61626c6520746f207472616e73666572416e6443616c6c20746f206f726181526020017f636c65000000000000000000000000000000000000000000000000000000000081525060400191505060405180910390fd5b60016004600082825401925050819055508090509392505050565b60006005600086815260200190815260200160002060009054906101000a900473ffffffffffffffffffffffffffffffffffffffff1690506005600086815260200190815260200160002060006101000a81549073ffffffffffffffffffffffffffffffffffffffff0219169055847fe1fe3afa0f7f761ff0a8b89086790efd5140d2907ebd5b7ff6bfcb5e075fd4c560405160405180910390a28073ffffffffffffffffffffffffffffffffffffffff16636ee4d553868686866040518563ffffffff167c010000000000000000000000000000000000000000000000000000000002815260040180858152602001848152602001837bffffffffffffffffffffffffffffffffffffffffffffffffffffffff19167bffffffffffffffffffffffffffffffffffffffffffffffffffffffff19168152602001828152602001945050505050600060405180830381600087803b15801561144157600080fd5b505af1158015611455573d6000803e3d6000fd5b505050505050505050565b600073ffffffffffffffffffffffffffffffffffffffff168173ffffffffffffffffffffffffffffffffffffffff161415151561152b576040517f08c379a00000000000000000000000000000000000000000000000000000000081526004018080602001828103825260268152602001807f4f776e61626c653a206e6577206f776e657220697320746865207a65726f206181526020017f646472657373000000000000000000000000000000000000000000000000000081525060400191505060405180910390fd5b8073ffffffffffffffffffffffffffffffffffffffff16600660009054906101000a900473ffffffffffffffffffffffffffffffffffffffff1673ffffffffffffffffffffffffffffffffffffffff167f8be0079c531659141344cd1fd0a4f28419497f9722a3daafe3b4186f6b6457e060405160405180910390a380600660006101000a81548173ffffffffffffffffffffffffffffffffffffffff021916908373ffffffffffffffffffffffffffffffffffffffff16021790555050565b6115f3611d6b565b61160385608001516101006118e3565b508385600001818152505082856020019073ffffffffffffffffffffffffffffffffffffffff16908173ffffffffffffffffffffffffffffffffffffffff16815250508185604001907bffffffffffffffffffffffffffffffffffffffffffffffffffffffff191690817bffffffffffffffffffffffffffffffffffffffffffffffffffffffff191681525050849050949350505050565b6116a8826003835161193d565b6116bb8183611ad990919063ffffffff16565b505050565b6060600360009054906101000a900473ffffffffffffffffffffffffffffffffffffffff1673ffffffffffffffffffffffffffffffffffffffff16634042994690507c01000000000000000000000000000000000000000000000000000000000260008084600001518560200151866040015187606001516001896080015160000151604051602401808973ffffffffffffffffffffffffffffffffffffffff1673ffffffffffffffffffffffffffffffffffffffff1681526020018881526020018781526020018673ffffffffffffffffffffffffffffffffffffffff1673ffffffffffffffffffffffffffffffffffffffff168152602001857bffffffffffffffffffffffffffffffffffffffffffffffffffffffff19167bffffffffffffffffffffffffffffffffffffffffffffffffffffffff1916815260200184815260200183815260200180602001828103825283818151815260200191508051906020019080838360005b8381101561184657808201518184015260208101905061182b565b50505050905090810190601f1680156118735780820380516001836020036101000a031916815260200191505b509950505050505050505050604051602081830303815290604052907bffffffffffffffffffffffffffffffffffffffffffffffffffffffff19166020820180517bffffffffffffffffffffffffffffffffffffffffffffffffffffffff83818316178352505050509050919050565b6118eb611dd9565b60006020838115156118f957fe5b061415156119165760208281151561190d57fe5b06602003820191505b81836020018181525050604051808452600081528281016020016040525082905092915050565b60178167ffffffffffffffff16111515611979576119738160058460ff169060020a0260ff161784611afb90919063ffffffff16565b50611ad4565b60ff8167ffffffffffffffff161115156119d4576119ad601860058460ff169060020a021784611afb90919063ffffffff16565b506119ce8167ffffffffffffffff16600185611b1b9092919063ffffffff16565b50611ad3565b61ffff8167ffffffffffffffff16111515611a3057611a09601960058460ff169060020a021784611afb90919063ffffffff16565b50611a2a8167ffffffffffffffff16600285611b1b9092919063ffffffff16565b50611ad2565b63ffffffff8167ffffffffffffffff16111515611a8e57611a67601a60058460ff169060020a021784611afb90919063ffffffff16565b50611a888167ffffffffffffffff16600485611b1b9092919063ffffffff16565b50611ad1565b611aae601b60058460ff169060020a021784611afb90919063ffffffff16565b50611acf8167ffffffffffffffff16600885611b1b9092919063ffffffff16565b505b5b5b5b505050565b611ae1611dd9565b611af383846000015151848551611b3d565b905092915050565b611b03611dd9565b611b138384600001515184611bfa565b905092915050565b611b23611dd9565b611b34848560000151518585611c4a565b90509392505050565b611b45611dd9565b82518211151515611b5557600080fd5b84602001518285011115611b8057611b7f856002611b798860200151888701611cab565b02611cc7565b5b600080865180518760208301019350808887011115611b9f5787860182525b60208701925050505b602084101515611bcd5780518252602082019150602081019050602084039350611ba8565b60006001856020036101000a03905080198251168184511681811785525050879350505050949350505050565b611c02611dd9565b836020015183101515611c2157611c20846002866020015102611cc7565b5b8351805160208583010184815381861415611c3d576001820183525b5050508390509392505050565b611c52611dd9565b84602001518483011115611c7057611c6f85600286850102611cc7565b5b60006001836101000a0390508551838682010185831982511617815281518588011115611c9d5784870182525b505085915050949350505050565b600081831115611cbd57829050611cc1565b8190505b92915050565b606082600001519050611cda83836118e3565b50611ce58382611ad9565b50505050565b828054600181600116156101000203166002900490600052602060002090601f016020900481019282601f10611d2c57805160ff1916838001178555611d5a565b82800160010185558215611d5a579182015b82811115611d59578251825591602001919060010190611d3e565b5b509050611d679190611df3565b5090565b60c06040519081016040528060008019168152602001600073ffffffffffffffffffffffffffffffffffffffff16815260200160007bffffffffffffffffffffffffffffffffffffffffffffffffffffffff1916815260200160008152602001611dd3611e18565b81525090565b604080519081016040528060608152602001600081525090565b611e1591905b80821115611e11576000816000905550600101611df9565b5090565b90565b60408051908101604052806060815260200160008152509056fea165627a7a7230582043aa2a74efca23740901015bdc7d54bea7ada122bffd4d45ebefb138d078ca170029",
  "source": "pragma solidity ^0.5.0;\n\nimport \"@chainlink/contracts/src/v0.5/ChainlinkClient.sol\";\nimport \"openzeppelin-solidity/contracts/ownership/Ownable.sol\";\n\ncontract WebScraptingData is ChainlinkClient, Ownable {\n    bytes32 public data;\n    string public url;\n\n    constructor(address _link) public {\n        if (_link == address(0)) {\n            setPublicChainlinkToken();\n        } else {\n            setChainlinkToken(_link);\n        }\n    }\n\n    function setUrl(string memory _url) public onlyOwner {\n        url = _url;\n    }\n\n    function getChainLinkToken() public view returns (address) {\n        return chainlinkTokenAddress();\n    }\n\n    function createRequestTo(\n        address _oracle,\n        bytes32 _jobId,\n        uint256 _payment,\n        string memory _path,\n        string memory _index,\n        string memory _filter\n    ) public onlyOwner returns (bytes32 requestId) {\n        require(bytes(url).length > 0, \"url is required\");\n        Chainlink.Request memory request = buildChainlinkRequest(\n            _jobId,\n            address(this),\n            this.fulfill.selector\n        );\n        request.add(\"url\", url);\n        request.add(\"path\", _path);\n        request.add(\"index\", _index);\n        request.add(\"filter\", _filter);\n        requestId = sendChainlinkRequestTo(_oracle, request, _payment);\n    }\n\n    function fulfill(bytes32 _requestId, bytes32 _data)\n        public\n        recordChainlinkFulfillment(_requestId)\n    {\n        data = _data;\n    }\n\n    function cancelRequest(\n        bytes32 _requestId,\n        uint256 _payment,\n        bytes4 _callbackFunctionId,\n        uint256 _expiration\n    ) public onlyOwner {\n        cancelChainlinkRequest(\n            _requestId,\n            _payment,\n            _callbackFunctionId,\n            _expiration\n        );\n    }\n}\n",
  "sourcePath": "/Users/kobayashitomoya/chainlink_gettingstarted/chainlink-node/contracts/WebScraypingData.sol",
  "compiler": {
    "name": "solc",
    "version": "0.5.0+commit.1d4f565a.Emscripten.clang"
  },
  "schemaVersion": "3.4.0",
  "updatedAt": "2022-02-06T01:59:43.054Z",
  "networkType": "ethereum",
  "devdoc": {
    "methods": {
      "isOwner()": {
        "details": "Returns true if the caller is the current owner."
      },
      "owner()": {
        "details": "Returns the address of the current owner."
      },
      "renounceOwnership()": {
        "details": "Leaves the contract without owner. It will not be possible to call `onlyOwner` functions anymore. Can only be called by the current owner.     * NOTE: Renouncing ownership will leave the contract without an owner, thereby removing any functionality that is only available to the owner."
      },
      "transferOwnership(address)": {
        "details": "Transfers ownership of the contract to a new account (`newOwner`). Can only be called by the current owner."
      }
    }
  },
  "userdoc": {
    "methods": {}
  }
}